{
  "_format": "hh-sol-artifact-1",
  "contractName": "FistbumpPortal",
  "sourceName": "contracts/WavePortal.sol",
  "abi": [
    {
      "inputs": [],
      "stateMutability": "nonpayable",
      "type": "constructor"
    },
    {
      "anonymous": false,
      "inputs": [
        {
          "indexed": true,
          "internalType": "address",
          "name": "from",
          "type": "address"
        },
        {
          "indexed": false,
          "internalType": "string",
          "name": "message",
          "type": "string"
        },
        {
          "indexed": false,
          "internalType": "uint256",
          "name": "timestamp",
          "type": "uint256"
        }
      ],
      "name": "NewFistbump",
      "type": "event"
    },
    {
      "inputs": [
        {
          "internalType": "string",
          "name": "_message",
          "type": "string"
        }
      ],
      "name": "fistbump",
      "outputs": [],
      "stateMutability": "nonpayable",
      "type": "function"
    },
    {
      "inputs": [],
      "name": "getAllFistbumps",
      "outputs": [
        {
          "components": [
            {
              "internalType": "address",
              "name": "sender",
              "type": "address"
            },
            {
              "internalType": "string",
              "name": "message",
              "type": "string"
            },
            {
              "internalType": "uint256",
              "name": "timestamp",
              "type": "uint256"
            }
          ],
          "internalType": "struct FistbumpPortal.Fistbump[]",
          "name": "",
          "type": "tuple[]"
        }
      ],
      "stateMutability": "view",
      "type": "function"
    },
    {
      "inputs": [],
      "name": "getTotalFistbumps",
      "outputs": [
        {
          "internalType": "uint256",
          "name": "",
          "type": "uint256"
        }
      ],
      "stateMutability": "view",
      "type": "function"
    }
  ],
  "bytecode": "0x608060405234801561001057600080fd5b506100596040518060400160405280601c81526020017f4120636f6e7472616374207769746820616e204951206f66203132300000000081525061005e60201b61036f1760201c565b6101e1565b6100fa81604051602401610072919061015f565b6040516020818303038152906040527f41304fac000000000000000000000000000000000000000000000000000000007bffffffffffffffffffffffffffffffffffffffffffffffffffffffff19166020820180517bffffffffffffffffffffffffffffffffffffffffffffffffffffffff83818316178352505050506100fd60201b60201c565b50565b60008151905060006a636f6e736f6c652e6c6f679050602083016000808483855afa5050505050565b600061013182610181565b61013b818561018c565b935061014b81856020860161019d565b610154816101d0565b840191505092915050565b600060208201905081810360008301526101798184610126565b905092915050565b600081519050919050565b600082825260208201905092915050565b60005b838110156101bb5780820151818401526020810190506101a0565b838111156101ca576000848401525b50505050565b6000601f19601f8301169050919050565b610b2680620001f16000396000f3fe608060405234801561001057600080fd5b50600436106100415760003560e01c80632bd3008014610046578063444e5ad1146100645780636b46d7a314610080575b600080fd5b61004e61009e565b60405161005b91906107a0565b60405180910390f35b61007e600480360381019061007991906105d8565b6101ef565b005b610088610366565b6040516100959190610844565b60405180910390f35b60606001805480602002602001604051908101604052809291908181526020016000905b828210156101e657838290600052602060002090600302016040518060600160405290816000820160009054906101000a900473ffffffffffffffffffffffffffffffffffffffff1673ffffffffffffffffffffffffffffffffffffffff1673ffffffffffffffffffffffffffffffffffffffff16815260200160018201805461014b906109ef565b80601f0160208091040260200160405190810160405280929190818152602001828054610177906109ef565b80156101c45780601f10610199576101008083540402835291602001916101c4565b820191906000526020600020905b8154815290600101906020018083116101a757829003601f168201915b50505050508152602001600282015481525050815260200190600101906100c2565b50505050905090565b6001600080828254610201919061091b565b925050819055506102476040518060400160405280601281526020017f257320686173206669737462756d70656421000000000000000000000000000081525033610408565b600160405180606001604052803373ffffffffffffffffffffffffffffffffffffffff16815260200183815260200142815250908060018154018082558091505060019003906000526020600020906003020160009091909190915060008201518160000160006101000a81548173ffffffffffffffffffffffffffffffffffffffff021916908373ffffffffffffffffffffffffffffffffffffffff16021790555060208201518160010190805190602001906103069291906104cd565b506040820151816002015550503373ffffffffffffffffffffffffffffffffffffffff167f9e435c5f831f5d7d9733b6ed94a192e528bd1b8fbd12bd2776e5a00be88ed55d824260405161035b929190610814565b60405180910390a250565b60008054905090565b6104058160405160240161038391906107c2565b6040516020818303038152906040527f41304fac000000000000000000000000000000000000000000000000000000007bffffffffffffffffffffffffffffffffffffffffffffffffffffffff19166020820180517bffffffffffffffffffffffffffffffffffffffffffffffffffffffff83818316178352505050506104a4565b50565b6104a0828260405160240161041e9291906107e4565b6040516020818303038152906040527f319af333000000000000000000000000000000000000000000000000000000007bffffffffffffffffffffffffffffffffffffffffffffffffffffffff19166020820180517bffffffffffffffffffffffffffffffffffffffffffffffffffffffff83818316178352505050506104a4565b5050565b60008151905060006a636f6e736f6c652e6c6f679050602083016000808483855afa5050505050565b8280546104d9906109ef565b90600052602060002090601f0160209004810192826104fb5760008555610542565b82601f1061051457805160ff1916838001178555610542565b82800160010185558215610542579182015b82811115610541578251825591602001919060010190610526565b5b50905061054f9190610553565b5090565b5b8082111561056c576000816000905550600101610554565b5090565b600061058361057e84610884565b61085f565b90508281526020810184848401111561059b57600080fd5b6105a68482856109ad565b509392505050565b600082601f8301126105bf57600080fd5b81356105cf848260208601610570565b91505092915050565b6000602082840312156105ea57600080fd5b600082013567ffffffffffffffff81111561060457600080fd5b610610848285016105ae565b91505092915050565b60006106258383610732565b905092915050565b61063681610971565b82525050565b61064581610971565b82525050565b6000610656826108c5565b61066081856108e8565b935083602082028501610672856108b5565b8060005b858110156106ae578484038952815161068f8582610619565b945061069a836108db565b925060208a01995050600181019050610676565b50829750879550505050505092915050565b60006106cb826108d0565b6106d581856108f9565b93506106e58185602086016109bc565b6106ee81610adf565b840191505092915050565b6000610704826108d0565b61070e818561090a565b935061071e8185602086016109bc565b61072781610adf565b840191505092915050565b600060608301600083015161074a600086018261062d565b506020830151848203602086015261076282826106c0565b91505060408301516107776040860182610782565b508091505092915050565b61078b816109a3565b82525050565b61079a816109a3565b82525050565b600060208201905081810360008301526107ba818461064b565b905092915050565b600060208201905081810360008301526107dc81846106f9565b905092915050565b600060408201905081810360008301526107fe81856106f9565b905061080d602083018461063c565b9392505050565b6000604082019050818103600083015261082e81856106f9565b905061083d6020830184610791565b9392505050565b60006020820190506108596000830184610791565b92915050565b600061086961087a565b90506108758282610a21565b919050565b6000604051905090565b600067ffffffffffffffff82111561089f5761089e610ab0565b5b6108a882610adf565b9050602081019050919050565b6000819050602082019050919050565b600081519050919050565b600081519050919050565b6000602082019050919050565b600082825260208201905092915050565b600082825260208201905092915050565b600082825260208201905092915050565b6000610926826109a3565b9150610931836109a3565b9250827fffffffffffffffffffffffffffffffffffffffffffffffffffffffffffffffff0382111561096657610965610a52565b5b828201905092915050565b600061097c82610983565b9050919050565b600073ffffffffffffffffffffffffffffffffffffffff82169050919050565b6000819050919050565b82818337600083830152505050565b60005b838110156109da5780820151818401526020810190506109bf565b838111156109e9576000848401525b50505050565b60006002820490506001821680610a0757607f821691505b60208210811415610a1b57610a1a610a81565b5b50919050565b610a2a82610adf565b810181811067ffffffffffffffff82111715610a4957610a48610ab0565b5b80604052505050565b7f4e487b7100000000000000000000000000000000000000000000000000000000600052601160045260246000fd5b7f4e487b7100000000000000000000000000000000000000000000000000000000600052602260045260246000fd5b7f4e487b7100000000000000000000000000000000000000000000000000000000600052604160045260246000fd5b6000601f19601f830116905091905056fea2646970667358221220d910a75c28680e8165fbb48e47619dfc13b58baf2d86f99d04cf30c7762a898b64736f6c63430008040033",
  "linkReferences": {},
  "deployedLinkReferences": {}
}