{
  "_format": "hh-sol-artifact-1",
  "contractName": "FistbumpPortal",
  "sourceName": "contracts/FistbumpPortal.sol",
  "abi": [
    {
      "inputs": [],
      "stateMutability": "payable",
      "type": "constructor"
    },
    {
      "anonymous": false,
      "inputs": [
        {
          "indexed": true,
          "internalType": "address",
          "name": "from",
          "type": "address"
        },
        {
          "indexed": false,
          "internalType": "string",
          "name": "message",
          "type": "string"
        },
        {
          "indexed": false,
          "internalType": "uint256",
          "name": "timestamp",
          "type": "uint256"
        }
      ],
      "name": "NewFistbump",
      "type": "event"
    },
    {
      "inputs": [
        {
          "internalType": "string",
          "name": "_message",
          "type": "string"
        }
      ],
      "name": "fistbump",
      "outputs": [],
      "stateMutability": "nonpayable",
      "type": "function"
    },
    {
      "inputs": [],
      "name": "getAllFistbumps",
      "outputs": [
        {
          "components": [
            {
              "internalType": "address",
              "name": "sender",
              "type": "address"
            },
            {
              "internalType": "string",
              "name": "message",
              "type": "string"
            },
            {
              "internalType": "uint256",
              "name": "timestamp",
              "type": "uint256"
            }
          ],
          "internalType": "struct FistbumpPortal.Fistbump[]",
          "name": "",
          "type": "tuple[]"
        }
      ],
      "stateMutability": "view",
      "type": "function"
    },
    {
      "inputs": [],
      "name": "getTotalFistbumps",
      "outputs": [
        {
          "internalType": "uint256",
          "name": "",
          "type": "uint256"
        }
      ],
      "stateMutability": "view",
      "type": "function"
    },
    {
      "inputs": [
        {
          "internalType": "address",
          "name": "",
          "type": "address"
        }
      ],
      "name": "lastFistbumpedAt",
      "outputs": [
        {
          "internalType": "uint256",
          "name": "",
          "type": "uint256"
        }
      ],
      "stateMutability": "view",
      "type": "function"
    }
  ],
  "bytecode": "0x60806040526200004f6040518060400160405280601c81526020017f4120636f6e7472616374207769746820616e204951206f6620313230000000008152506200005560201b6200060b1760201c565b620001e9565b620000f5816040516024016200006c919062000162565b6040516020818303038152906040527f41304fac000000000000000000000000000000000000000000000000000000007bffffffffffffffffffffffffffffffffffffffffffffffffffffffff19166020820180517bffffffffffffffffffffffffffffffffffffffffffffffffffffffff8381831617835250505050620000f860201b60201c565b50565b60008151905060006a636f6e736f6c652e6c6f679050602083016000808483855afa5050505050565b60006200012e8262000186565b6200013a818562000191565b93506200014c818560208601620001a2565b6200015781620001d8565b840191505092915050565b600060208201905081810360008301526200017e818462000121565b905092915050565b600081519050919050565b600082825260208201905092915050565b60005b83811015620001c2578082015181840152602081019050620001a5565b83811115620001d2576000848401525b50505050565b6000601f19601f8301169050919050565b6110e980620001f96000396000f3fe608060405234801561001057600080fd5b506004361061004c5760003560e01c80632bd3008014610051578063444e5ad11461006f5780636b46d7a31461008b578063ff7e4fa4146100a9575b600080fd5b6100596100d9565b6040516100669190610bb7565b60405180910390f35b6100896004803603810190610084919061094e565b61022a565b005b6100936105ea565b6040516100a09190610cbb565b60405180910390f35b6100c360048036038101906100be9190610925565b6105f3565b6040516100d09190610cbb565b60405180910390f35b60606002805480602002602001604051908101604052809291908181526020016000905b8282101561022157838290600052602060002090600302016040518060600160405290816000820160009054906101000a900473ffffffffffffffffffffffffffffffffffffffff1673ffffffffffffffffffffffffffffffffffffffff1673ffffffffffffffffffffffffffffffffffffffff16815260200160018201805461018690610e71565b80601f01602080910402602001604051908101604052809291908181526020018280546101b290610e71565b80156101ff5780601f106101d4576101008083540402835291602001916101ff565b820191906000526020600020905b8154815290600101906020018083116101e257829003601f168201915b50505050508152602001600282015481525050815260200190600101906100fd565b50505050905090565b42610384600360003373ffffffffffffffffffffffffffffffffffffffff1673ffffffffffffffffffffffffffffffffffffffff168152602001908152602001600020546102789190610d9d565b106102b8576040517f08c379a00000000000000000000000000000000000000000000000000000000081526004016102af90610c9b565b60405180910390fd5b42600360003373ffffffffffffffffffffffffffffffffffffffff1673ffffffffffffffffffffffffffffffffffffffff16815260200190815260200160002081905550600160008082825461030e9190610d9d565b925050819055506103546040518060400160405280601281526020017f257320686173206669737462756d706564210000000000000000000000000000815250336106a4565b600260405180606001604052803373ffffffffffffffffffffffffffffffffffffffff16815260200183815260200142815250908060018154018082558091505060019003906000526020600020906003020160009091909190915060008201518160000160006101000a81548173ffffffffffffffffffffffffffffffffffffffff021916908373ffffffffffffffffffffffffffffffffffffffff1602179055506020820151816001019080519060200190610413929190610805565b506040820151816002015550503373ffffffffffffffffffffffffffffffffffffffff167f9e435c5f831f5d7d9733b6ed94a192e528bd1b8fbd12bd2776e5a00be88ed55d8242604051610468929190610c2b565b60405180910390a26000606460015442446104839190610d9d565b61048d9190610d9d565b6104979190610ed4565b90506104d86040518060400160405280601681526020017f72616e646f6d20232067656e6572617465643a2025730000000000000000000081525082610740565b80600181905550602a8110156105e657600066017dfcdece4000905047811115610537576040517f08c379a000000000000000000000000000000000000000000000000000000000815260040161052e90610c5b565b60405180910390fd5b60003373ffffffffffffffffffffffffffffffffffffffff168260405161055d90610ba2565b60006040518083038185875af1925050503d806000811461059a576040519150601f19603f3d011682016040523d82523d6000602084013e61059f565b606091505b50509050806105e3576040517f08c379a00000000000000000000000000000000000000000000000000000000081526004016105da90610c7b565b60405180910390fd5b50505b5050565b60008054905090565b60036020528060005260406000206000915090505481565b6106a18160405160240161061f9190610bd9565b6040516020818303038152906040527f41304fac000000000000000000000000000000000000000000000000000000007bffffffffffffffffffffffffffffffffffffffffffffffffffffffff19166020820180517bffffffffffffffffffffffffffffffffffffffffffffffffffffffff83818316178352505050506107dc565b50565b61073c82826040516024016106ba929190610bfb565b6040516020818303038152906040527f319af333000000000000000000000000000000000000000000000000000000007bffffffffffffffffffffffffffffffffffffffffffffffffffffffff19166020820180517bffffffffffffffffffffffffffffffffffffffffffffffffffffffff83818316178352505050506107dc565b5050565b6107d88282604051602401610756929190610c2b565b6040516020818303038152906040527f9710a9d0000000000000000000000000000000000000000000000000000000007bffffffffffffffffffffffffffffffffffffffffffffffffffffffff19166020820180517bffffffffffffffffffffffffffffffffffffffffffffffffffffffff83818316178352505050506107dc565b5050565b60008151905060006a636f6e736f6c652e6c6f679050602083016000808483855afa5050505050565b82805461081190610e71565b90600052602060002090601f016020900481019282610833576000855561087a565b82601f1061084c57805160ff191683800117855561087a565b8280016001018555821561087a579182015b8281111561087957825182559160200191906001019061085e565b5b509050610887919061088b565b5090565b5b808211156108a457600081600090555060010161088c565b5090565b60006108bb6108b684610cfb565b610cd6565b9050828152602081018484840111156108d357600080fd5b6108de848285610e2f565b509392505050565b6000813590506108f58161109c565b92915050565b600082601f83011261090c57600080fd5b813561091c8482602086016108a8565b91505092915050565b60006020828403121561093757600080fd5b6000610945848285016108e6565b91505092915050565b60006020828403121561096057600080fd5b600082013567ffffffffffffffff81111561097a57600080fd5b610986848285016108fb565b91505092915050565b600061099b8383610b34565b905092915050565b6109ac81610df3565b82525050565b6109bb81610df3565b82525050565b60006109cc82610d3c565b6109d68185610d5f565b9350836020820285016109e885610d2c565b8060005b85811015610a245784840389528151610a05858261098f565b9450610a1083610d52565b925060208a019950506001810190506109ec565b50829750879550505050505092915050565b6000610a4182610d47565b610a4b8185610d7b565b9350610a5b818560208601610e3e565b610a6481610fc1565b840191505092915050565b6000610a7a82610d47565b610a848185610d8c565b9350610a94818560208601610e3e565b610a9d81610fc1565b840191505092915050565b6000610ab5603483610d8c565b9150610ac082610fd2565b604082019050919050565b6000610ad8602783610d8c565b9150610ae382611021565b604082019050919050565b6000610afb600083610d70565b9150610b0682611070565b600082019050919050565b6000610b1e600f83610d8c565b9150610b2982611073565b602082019050919050565b6000606083016000830151610b4c60008601826109a3565b5060208301518482036020860152610b648282610a36565b9150506040830151610b796040860182610b84565b508091505092915050565b610b8d81610e25565b82525050565b610b9c81610e25565b82525050565b6000610bad82610aee565b9150819050919050565b60006020820190508181036000830152610bd181846109c1565b905092915050565b60006020820190508181036000830152610bf38184610a6f565b905092915050565b60006040820190508181036000830152610c158185610a6f565b9050610c2460208301846109b2565b9392505050565b60006040820190508181036000830152610c458185610a6f565b9050610c546020830184610b93565b9392505050565b60006020820190508181036000830152610c7481610aa8565b9050919050565b60006020820190508181036000830152610c9481610acb565b9050919050565b60006020820190508181036000830152610cb481610b11565b9050919050565b6000602082019050610cd06000830184610b93565b92915050565b6000610ce0610cf1565b9050610cec8282610ea3565b919050565b6000604051905090565b600067ffffffffffffffff821115610d1657610d15610f92565b5b610d1f82610fc1565b9050602081019050919050565b6000819050602082019050919050565b600081519050919050565b600081519050919050565b6000602082019050919050565b600082825260208201905092915050565b600081905092915050565b600082825260208201905092915050565b600082825260208201905092915050565b6000610da882610e25565b9150610db383610e25565b9250827fffffffffffffffffffffffffffffffffffffffffffffffffffffffffffffffff03821115610de857610de7610f05565b5b828201905092915050565b6000610dfe82610e05565b9050919050565b600073ffffffffffffffffffffffffffffffffffffffff82169050919050565b6000819050919050565b82818337600083830152505050565b60005b83811015610e5c578082015181840152602081019050610e41565b83811115610e6b576000848401525b50505050565b60006002820490506001821680610e8957607f821691505b60208210811415610e9d57610e9c610f63565b5b50919050565b610eac82610fc1565b810181811067ffffffffffffffff82111715610ecb57610eca610f92565b5b80604052505050565b6000610edf82610e25565b9150610eea83610e25565b925082610efa57610ef9610f34565b5b828206905092915050565b7f4e487b7100000000000000000000000000000000000000000000000000000000600052601160045260246000fd5b7f4e487b7100000000000000000000000000000000000000000000000000000000600052601260045260246000fd5b7f4e487b7100000000000000000000000000000000000000000000000000000000600052602260045260246000fd5b7f4e487b7100000000000000000000000000000000000000000000000000000000600052604160045260246000fd5b6000601f19601f8301169050919050565b7f547279696e6720746f207769746864726177206d6f7265206d6f6e657920746860008201527f616e2074686520636f6e7472616374206861732e000000000000000000000000602082015250565b7f4661696c656420746f207769746864726177206d6f6e65792066726f6d20636f60008201527f6e74726163742e00000000000000000000000000000000000000000000000000602082015250565b50565b7f57616974203135206d696e757465730000000000000000000000000000000000600082015250565b6110a581610df3565b81146110b057600080fd5b5056fea264697066735822122009bf25c0adce839368b29e993bb13448785ae60c2f65fb04cb1c909c8fa4ab7764736f6c63430008040033",
  "linkReferences": {},
  "deployedLinkReferences": {}
}