{
  "_format": "hh-sol-artifact-1",
  "contractName": "WavePortal",
  "sourceName": "contracts/WavePortal.sol",
  "abi": [
    {
      "inputs": [],
      "stateMutability": "nonpayable",
      "type": "constructor"
    },
    {
      "inputs": [],
      "name": "getLastWaver",
      "outputs": [
        {
          "internalType": "address",
          "name": "",
          "type": "address"
        }
      ],
      "stateMutability": "view",
      "type": "function"
    },
    {
      "inputs": [],
      "name": "getTotalWaves",
      "outputs": [
        {
          "internalType": "uint256",
          "name": "",
          "type": "uint256"
        }
      ],
      "stateMutability": "view",
      "type": "function"
    },
    {
      "inputs": [],
      "name": "wave",
      "outputs": [],
      "stateMutability": "nonpayable",
      "type": "function"
    }
  ],
  "bytecode": "0x608060405234801561001057600080fd5b506100596040518060400160405280601c81526020017f4120636f6e7472616374207769746820616e204951206f66203132300000000081525061005e60201b61019c1760201c565b6101e1565b6100fa81604051602401610072919061015f565b6040516020818303038152906040527f41304fac000000000000000000000000000000000000000000000000000000007bffffffffffffffffffffffffffffffffffffffffffffffffffffffff19166020820180517bffffffffffffffffffffffffffffffffffffffffffffffffffffffff83818316178352505050506100fd60201b60201c565b50565b60008151905060006a636f6e736f6c652e6c6f679050602083016000808483855afa5050505050565b600061013182610181565b61013b818561018c565b935061014b81856020860161019d565b610154816101d0565b840191505092915050565b600060208201905081810360008301526101798184610126565b905092915050565b600081519050919050565b600082825260208201905092915050565b60005b838110156101bb5780820151818401526020810190506101a0565b838111156101ca576000848401525b50505050565b6000601f19601f8301169050919050565b6105fc806101f06000396000f3fe608060405234801561001057600080fd5b50600436106100415760003560e01c80632bce00e2146100465780636fe15b44146100645780639a2cdc081461006e575b600080fd5b61004e61008c565b60405161005b91906103ed565b60405180910390f35b61006c6100b6565b005b610076610151565b604051610083919061048a565b60405180910390f35b6000600160009054906101000a900473ffffffffffffffffffffffffffffffffffffffff16905090565b60016000808282546100c891906104c1565b9250508190555033600160006101000a81548173ffffffffffffffffffffffffffffffffffffffff021916908373ffffffffffffffffffffffffffffffffffffffff16021790555061014f6040518060400160405280600d81526020017f257320686173207761766564210000000000000000000000000000000000000081525033610235565b565b60006101946040518060400160405280601781526020017f5765206861766520256420746f74616c207761766573210000000000000000008152506000546102d1565b600054905090565b610232816040516024016101b09190610408565b6040516020818303038152906040527f41304fac000000000000000000000000000000000000000000000000000000007bffffffffffffffffffffffffffffffffffffffffffffffffffffffff19166020820180517bffffffffffffffffffffffffffffffffffffffffffffffffffffffff838183161783525050505061036d565b50565b6102cd828260405160240161024b92919061042a565b6040516020818303038152906040527f319af333000000000000000000000000000000000000000000000000000000007bffffffffffffffffffffffffffffffffffffffffffffffffffffffff19166020820180517bffffffffffffffffffffffffffffffffffffffffffffffffffffffff838183161783525050505061036d565b5050565b61036982826040516024016102e792919061045a565b6040516020818303038152906040527f9710a9d0000000000000000000000000000000000000000000000000000000007bffffffffffffffffffffffffffffffffffffffffffffffffffffffff19166020820180517bffffffffffffffffffffffffffffffffffffffffffffffffffffffff838183161783525050505061036d565b5050565b60008151905060006a636f6e736f6c652e6c6f679050602083016000808483855afa5050505050565b61039f81610517565b82525050565b60006103b0826104a5565b6103ba81856104b0565b93506103ca818560208601610553565b6103d3816105b5565b840191505092915050565b6103e781610549565b82525050565b60006020820190506104026000830184610396565b92915050565b6000602082019050818103600083015261042281846103a5565b905092915050565b6000604082019050818103600083015261044481856103a5565b90506104536020830184610396565b9392505050565b6000604082019050818103600083015261047481856103a5565b905061048360208301846103de565b9392505050565b600060208201905061049f60008301846103de565b92915050565b600081519050919050565b600082825260208201905092915050565b60006104cc82610549565b91506104d783610549565b9250827fffffffffffffffffffffffffffffffffffffffffffffffffffffffffffffffff0382111561050c5761050b610586565b5b828201905092915050565b600061052282610529565b9050919050565b600073ffffffffffffffffffffffffffffffffffffffff82169050919050565b6000819050919050565b60005b83811015610571578082015181840152602081019050610556565b83811115610580576000848401525b50505050565b7f4e487b7100000000000000000000000000000000000000000000000000000000600052601160045260246000fd5b6000601f19601f830116905091905056fea26469706673582212201355f1474dd86d543b80fc7cd410b383be17026408b98753cd60c2dad405224464736f6c63430008040033",
  "linkReferences": {},
  "deployedLinkReferences": {}
}